{
  "_format": "hh-sol-artifact-1",
  "contractName": "Marketplace",
  "sourceName": "src/backend/contracts/Marketplace.sol",
  "abi": [
    {
      "inputs": [
        {
          "internalType": "uint256",
          "name": "_feePrecent",
          "type": "uint256"
        }
      ],
      "stateMutability": "nonpayable",
      "type": "constructor"
    },
    {
      "anonymous": false,
      "inputs": [
        {
          "indexed": false,
          "internalType": "uint256",
          "name": "itemId",
          "type": "uint256"
        },
        {
          "indexed": false,
          "internalType": "uint256",
          "name": "tokenId",
          "type": "uint256"
        },
        {
          "indexed": false,
          "internalType": "uint256",
          "name": "price",
          "type": "uint256"
        },
        {
          "indexed": true,
          "internalType": "address",
          "name": "nft",
          "type": "address"
        },
        {
          "indexed": true,
          "internalType": "address",
          "name": "seller",
          "type": "address"
        },
        {
          "indexed": true,
          "internalType": "address",
          "name": "buyer",
          "type": "address"
        }
      ],
      "name": "Bought",
      "type": "event"
    },
    {
      "anonymous": false,
      "inputs": [
        {
          "indexed": false,
          "internalType": "uint256",
          "name": "itemId",
          "type": "uint256"
        },
        {
          "indexed": false,
          "internalType": "uint256",
          "name": "tokenId",
          "type": "uint256"
        },
        {
          "indexed": false,
          "internalType": "uint256",
          "name": "price",
          "type": "uint256"
        },
        {
          "indexed": true,
          "internalType": "address",
          "name": "nft",
          "type": "address"
        },
        {
          "indexed": true,
          "internalType": "address",
          "name": "seller",
          "type": "address"
        }
      ],
      "name": "Offered",
      "type": "event"
    },
    {
      "inputs": [],
      "name": "feePrecent",
      "outputs": [
        {
          "internalType": "uint256",
          "name": "",
          "type": "uint256"
        }
      ],
      "stateMutability": "view",
      "type": "function"
    },
    {
      "inputs": [],
      "name": "itemCount",
      "outputs": [
        {
          "internalType": "uint256",
          "name": "",
          "type": "uint256"
        }
      ],
      "stateMutability": "view",
      "type": "function"
    },
    {
      "inputs": [
        {
          "internalType": "uint256",
          "name": "",
          "type": "uint256"
        }
      ],
      "name": "items",
      "outputs": [
        {
          "internalType": "uint256",
          "name": "itemId",
          "type": "uint256"
        },
        {
          "internalType": "uint256",
          "name": "tokenId",
          "type": "uint256"
        },
        {
          "internalType": "uint256",
          "name": "price",
          "type": "uint256"
        },
        {
          "internalType": "contract IERC721",
          "name": "nft",
          "type": "address"
        },
        {
          "internalType": "address payable",
          "name": "seller",
          "type": "address"
        },
        {
          "internalType": "bool",
          "name": "sold",
          "type": "bool"
        }
      ],
      "stateMutability": "view",
      "type": "function"
    },
    {
      "inputs": [
        {
          "internalType": "contract IERC721",
          "name": "_nft",
          "type": "address"
        },
        {
          "internalType": "uint256",
          "name": "_tokenId",
          "type": "uint256"
        },
        {
          "internalType": "uint256",
          "name": "_price",
          "type": "uint256"
        }
      ],
      "name": "makeItem",
      "outputs": [],
      "stateMutability": "nonpayable",
      "type": "function"
    },
    {
      "inputs": [
        {
          "internalType": "uint256",
          "name": "_itemId",
          "type": "uint256"
        }
      ],
      "name": "priceAfterSiteFees",
      "outputs": [
        {
          "internalType": "uint256",
          "name": "",
          "type": "uint256"
        }
      ],
      "stateMutability": "view",
      "type": "function"
    },
    {
      "inputs": [
        {
          "internalType": "uint256",
          "name": "_itemId",
          "type": "uint256"
        }
      ],
      "name": "purchaseItem",
      "outputs": [],
      "stateMutability": "payable",
      "type": "function"
    }
  ],
  "bytecode": "0x60c060405234801561001057600080fd5b5060405161111138038061111183398181016040528101906100329190610094565b60016000819055503373ffffffffffffffffffffffffffffffffffffffff1660808173ffffffffffffffffffffffffffffffffffffffff1660601b815250508060a08181525050506100de565b60008151905061008e816100c7565b92915050565b6000602082840312156100a657600080fd5b60006100b48482850161007f565b91505092915050565b6000819050919050565b6100d0816100bd565b81146100db57600080fd5b50565b60805160601c60a05161100461010d6000396000818161017c01526105fb015260006103f001526110046000f3fe6080604052600436106100555760003560e01c80636bfb0d011461005a5780636e130f0914610085578063bfb231d2146100b0578063d38ea5bf146100f2578063eea35f291461010e578063fa00afc71461014b575b600080fd5b34801561006657600080fd5b5061006f610174565b60405161007c9190610b9d565b60405180910390f35b34801561009157600080fd5b5061009a61017a565b6040516100a79190610b9d565b60405180910390f35b3480156100bc57600080fd5b506100d760048036038101906100d291906109a3565b61019e565b6040516100e996959493929190610bef565b60405180910390f35b61010c600480360381019061010791906109a3565b610227565b005b34801561011a57600080fd5b50610135600480360381019061013091906109a3565b6105f5565b6040516101429190610b9d565b60405180910390f35b34801561015757600080fd5b50610172600480360381019061016d9190610954565b610658565b005b60015481565b7f000000000000000000000000000000000000000000000000000000000000000081565b60026020528060005260406000206000915090508060000154908060010154908060020154908060030160009054906101000a900473ffffffffffffffffffffffffffffffffffffffff16908060040160009054906101000a900473ffffffffffffffffffffffffffffffffffffffff16908060040160149054906101000a900460ff16905086565b6002600054141561026d576040517f08c379a000000000000000000000000000000000000000000000000000000000815260040161026490610b5d565b60405180910390fd5b60026000819055506000610280826105f5565b905060006002600084815260200190815260200160002090506000831180156102ab57506001548311155b6102ea576040517f08c379a00000000000000000000000000000000000000000000000000000000081526004016102e190610b1d565b60405180910390fd5b8134101561032d576040517f08c379a000000000000000000000000000000000000000000000000000000000815260040161032490610afd565b60405180910390fd5b8060040160149054906101000a900460ff161561037f576040517f08c379a000000000000000000000000000000000000000000000000000000000815260040161037690610b3d565b60405180910390fd5b8060040160009054906101000a900473ffffffffffffffffffffffffffffffffffffffff1673ffffffffffffffffffffffffffffffffffffffff166108fc82600201549081150290604051600060405180830381858888f193505050501580156103ed573d6000803e3d6000fd5b507f000000000000000000000000000000000000000000000000000000000000000073ffffffffffffffffffffffffffffffffffffffff166108fc8260020154846104389190610d42565b9081150290604051600060405180830381858888f19350505050158015610463573d6000803e3d6000fd5b5060018160040160146101000a81548160ff0219169083151502179055508060030160009054906101000a900473ffffffffffffffffffffffffffffffffffffffff1673ffffffffffffffffffffffffffffffffffffffff166323b872dd303384600101546040518463ffffffff1660e01b81526004016104e693929190610ac6565b600060405180830381600087803b15801561050057600080fd5b505af1158015610514573d6000803e3d6000fd5b505050503373ffffffffffffffffffffffffffffffffffffffff168160040160009054906101000a900473ffffffffffffffffffffffffffffffffffffffff1673ffffffffffffffffffffffffffffffffffffffff168260030160009054906101000a900473ffffffffffffffffffffffffffffffffffffffff1673ffffffffffffffffffffffffffffffffffffffff167fd37dad59375a554b19479ac1258ea706da4a48fd73d4cc1b395de5c7d2eb47fe86856001015486600201546040516105e093929190610bb8565b60405180910390a45050600160008190555050565b600060647f000000000000000000000000000000000000000000000000000000000000000060646106269190610c61565b60026000858152602001908152602001600020600201546106479190610ce8565b6106519190610cb7565b9050919050565b6002600054141561069e576040517f08c379a000000000000000000000000000000000000000000000000000000000815260040161069590610b5d565b60405180910390fd5b6002600081905550600081116106e9576040517f08c379a00000000000000000000000000000000000000000000000000000000081526004016106e090610b7d565b60405180910390fd5b600160008154809291906106fc90610e06565b91905055508273ffffffffffffffffffffffffffffffffffffffff166323b872dd3330856040518463ffffffff1660e01b815260040161073e93929190610ac6565b600060405180830381600087803b15801561075857600080fd5b505af115801561076c573d6000803e3d6000fd5b505050506040518060c0016040528060015481526020018381526020018281526020018473ffffffffffffffffffffffffffffffffffffffff1681526020013373ffffffffffffffffffffffffffffffffffffffff1681526020016000151581525060026000600154815260200190815260200160002060008201518160000155602082015181600101556040820151816002015560608201518160030160006101000a81548173ffffffffffffffffffffffffffffffffffffffff021916908373ffffffffffffffffffffffffffffffffffffffff16021790555060808201518160040160006101000a81548173ffffffffffffffffffffffffffffffffffffffff021916908373ffffffffffffffffffffffffffffffffffffffff16021790555060a08201518160040160146101000a81548160ff0219169083151502179055509050503373ffffffffffffffffffffffffffffffffffffffff168373ffffffffffffffffffffffffffffffffffffffff167f028aa6bf0daa16a961a8a8bde31971be228a109b7da47ece791af9d45ab5754a600154858560405161091593929190610bb8565b60405180910390a36001600081905550505050565b60008135905061093981610fa0565b92915050565b60008135905061094e81610fb7565b92915050565b60008060006060848603121561096957600080fd5b60006109778682870161092a565b93505060206109888682870161093f565b92505060406109998682870161093f565b9150509250925092565b6000602082840312156109b557600080fd5b60006109c38482850161093f565b91505092915050565b6109d581610d88565b82525050565b6109e481610d76565b82525050565b6109f381610d9a565b82525050565b610a0281610de2565b82525050565b6000610a15602783610c50565b9150610a2082610ead565b604082019050919050565b6000610a38601283610c50565b9150610a4382610efc565b602082019050919050565b6000610a5b601583610c50565b9150610a6682610f25565b602082019050919050565b6000610a7e601f83610c50565b9150610a8982610f4e565b602082019050919050565b6000610aa1601c83610c50565b9150610aac82610f77565b602082019050919050565b610ac081610dd8565b82525050565b6000606082019050610adb60008301866109db565b610ae860208301856109db565b610af56040830184610ab7565b949350505050565b60006020820190508181036000830152610b1681610a08565b9050919050565b60006020820190508181036000830152610b3681610a2b565b9050919050565b60006020820190508181036000830152610b5681610a4e565b9050919050565b60006020820190508181036000830152610b7681610a71565b9050919050565b60006020820190508181036000830152610b9681610a94565b9050919050565b6000602082019050610bb26000830184610ab7565b92915050565b6000606082019050610bcd6000830186610ab7565b610bda6020830185610ab7565b610be76040830184610ab7565b949350505050565b600060c082019050610c046000830189610ab7565b610c116020830188610ab7565b610c1e6040830187610ab7565b610c2b60608301866109f9565b610c3860808301856109cc565b610c4560a08301846109ea565b979650505050505050565b600082825260208201905092915050565b6000610c6c82610dd8565b9150610c7783610dd8565b9250827fffffffffffffffffffffffffffffffffffffffffffffffffffffffffffffffff03821115610cac57610cab610e4f565b5b828201905092915050565b6000610cc282610dd8565b9150610ccd83610dd8565b925082610cdd57610cdc610e7e565b5b828204905092915050565b6000610cf382610dd8565b9150610cfe83610dd8565b9250817fffffffffffffffffffffffffffffffffffffffffffffffffffffffffffffffff0483118215151615610d3757610d36610e4f565b5b828202905092915050565b6000610d4d82610dd8565b9150610d5883610dd8565b925082821015610d6b57610d6a610e4f565b5b828203905092915050565b6000610d8182610db8565b9050919050565b6000610d9382610db8565b9050919050565b60008115159050919050565b6000610db182610d76565b9050919050565b600073ffffffffffffffffffffffffffffffffffffffff82169050919050565b6000819050919050565b6000610ded82610df4565b9050919050565b6000610dff82610db8565b9050919050565b6000610e1182610dd8565b91507fffffffffffffffffffffffffffffffffffffffffffffffffffffffffffffffff821415610e4457610e43610e4f565b5b600182019050919050565b7f4e487b7100000000000000000000000000000000000000000000000000000000600052601160045260246000fd5b7f4e487b7100000000000000000000000000000000000000000000000000000000600052601260045260246000fd5b7f6e6f7420656e6f75676820636f696e20666f722070757263686173696e67207460008201527f6865206974656d00000000000000000000000000000000000000000000000000602082015250565b7f6974656d20646f65736e27742065786973740000000000000000000000000000600082015250565b7f6974656d20697320736f6c6420616c7265616479210000000000000000000000600082015250565b7f5265656e7472616e637947756172643a207265656e7472616e742063616c6c00600082015250565b7f5072696365206d7573742062652067726561746572207468616e203000000000600082015250565b610fa981610da6565b8114610fb457600080fd5b50565b610fc081610dd8565b8114610fcb57600080fd5b5056fea26469706673582212208f7877a8191748e1c51f8a8a474a275ef94c99a163859e4871573c4b7050749664736f6c63430008040033",
  "linkReferences": {},
  "deployedLinkReferences": {}
}